:020000040800F2
:1000000000000220850A00087D0A00087D0A000819
:100010007D0A00087D0A00087D0A00080000000033
:100020000000000000000000000000007D0A000841
:100030007D0A0008000000007D0A00087D0A000813
:100040007D0A00087D0A00087D0A00087D0A000874
:100050007D0A00087D0A00087D0A00087D0A000864
:100060007D0A00087D0A00087D0A00087D0A000854
:100070007D0A00087D0A00087D0A00087D0A000844
:100080007D0A00087D0A00087D0A00087D0A000834
:100090007D0A00087D0A00087D0A00087D0A000824
:1000A0007D0A00087D0A00087D0A00087D0A000814
:1000B0007D0A00087D0A00087D0A00087D0A000804
:1000C0007D0A00087D0A00087D0A00087D0A0008F4
:1000D0007D0A00087D0A00087D0A00087D0A0008E4
:1000E0007D0A00087D0A00087D0A00087D0A0008D4
:1000F0007D0A00087D0A00087D0A00087D0A0008C4
:100100007D0A00087D0A00087D0A00087D0A0008B3
:100110007D0A00087D0A00087D0A00087D0A0008A3
:100120007D0A00087D0A00087D0A00087D0A000893
:100130007D0A000800000000000000007D0A0008A1
:100140007D0A00087D0A00087D0A00087D0A000873
:100150007D0A00087D0A00087D0A00087D0A000863
:100160007D0A00087D0A00087D0A00087D0A000853
:100170007D0A00087D0A00087D0A000800000000D2
:10018000000000007D0A00080000000000000000E0
:100190007D0A000800000000000000007D0A000841
:1001A0000000000000000000000000007D0A0008C0
:1001B0007D0A00087D0A00087D0A00087D0A000803
:0401C0007D0A0008AC
:1001C40080B588B000AF1E4A07F1140392E803001B
:1001D40083E8030007F1080307F1140292E803001F
:1001E40083E8030002233B7407237B7407F10803AD
:1001F4000121184600F0FCFA002000F061FB114ACE
:100204003B4692E8030018600433198002330A0C59
:100214001A703B46184600F017F80023FB610521CD
:10022400002000F08BF90023FB6102E0FB6901333D
:10023400FB61FB696FF07F429342F7D3EFE700BFA6
:10024400F40A0008FC0A000880B485B000AF7860A6
:100254000023FB737B68002B00F02C817B681B78E8
:10026400072B00F224817B685B780F2B00F21F813F
:100274007B689B78032B00F21A817B68DB78032B65
:1002840000F215817B681B79012B00F210817B68D9
:100294005B79022B00F20B817B689B790F2B00F2B8
:1002A40006817B685B785B00BB737B681B781A46AE
:1002B400844B53F822301A68BB7B032101FA03F301
:1002C400DB4319467B681B7818467E4B53F8203075
:1002D4000A401A607B681B781A467A4B53F822301E
:1002E4001A687B689B781946BB7B01FA03F31946AD
:1002F4007B681B781846734B53F820300A431A6006
:100304007B681B781A466F4B53F82230DA68BB7B44
:10031400032101FA03F3DB4319467B681B78184673
:10032400684B53F820300A40DA607B681B781A4621
:10033400644B53F82230DA687B685B791946BB7BDF
:1003440001FA03F319467B681B7818465D4B53F892
:1003540020300A43DA607B689B78012B03D07B68EA
:100364009B78022B56D17B681B781A46554B53F861
:10037400223059687B685B781A4601239340DA433C
:100384007B681B7818464F4B53F820300A405A605C
:100394007B681B781A464B4B53F822305A687B68AB
:1003A4001B7919467B685B7801FA03F319467B686D
:1003B4001B781846434B53F820300A435A607B6835
:1003C4001B781A463F4B53F822309A68BB7B0321B3
:1003D40001FA03F3DB4319467B681B781846394B53
:1003E40053F820300A409A607B681B781A46354BD4
:1003F40053F822309A687B68DB781946BB7B01FA94
:1004040003F319467B681B7818462E4B53F82030AB
:100414000A439A607B689B78022B03D07B689B78A5
:10042400032B41D17B685B78DB087B737B685B784B
:1004340003F00703DBB29B003B737B681B781A460F
:10044400204B53F822307A7B083253F822103B7B3E
:100454000F2202FA03F3DB4318467B681B781A4623
:10046400184B53F822307A7B0140083243F82210AB
:100474007B681B781A46134B53F822307A7B083278
:1004840053F822107B689B791A463B7B02FA03F3EC
:1004940018467B681B781A460A4B53F822307A7B3D
:1004A4000143083243F822100123FB7304E00023C4
:1004B400FB7301E00223FB73FB7B18461437BD4634
:1004C40080BC70470000002080B485B000AF0346B4
:1004D400FB710B46BB7113467B710123FB73FB79E4
:1004E400072B21D8BB790F2B1ED87B79012B09D17F
:1004F400BA79FB79104951F82330012101FA02F24B
:100504009A6113E07B79002B0BD1BB7903F11002C4
:10051400FB79094951F82330012101FA02F29A6169
:1005240004E00023FB7301E00023FB73FB7B18460C
:100534001437BD4680BC70470000002080B485B0ED
:1005440000AF03460A46FB711346BB710123FB73DC
:10055400FB79072B11D8BB790F2B0ED8FB790B4AEB
:1005640052F823305969BB7901229A40FB79074834
:1005740050F823304A405A6101E00023FB73FB7BAF
:1005840018461437BD4680BC704700BF00000020E9
:1005940080B485B000AF03463960FB710123FB735F
:1005A4003B68002B1AD0FB79072B14D83B681B78C7
:1005B4000F2B10D8FB799B0203F1804303F5003322
:1005C4001B693A681278D340DBB203F00103DAB254
:1005D4003B681A7004E00023FB7301E00223FB7301
:1005E400FB7B18461437BD4680BC704780B485B089
:1005F40000AF03460A46FB711346BB800123FB731D
:10060400FB79072B30D8BB880F2B2DD8BB88012250
:100614009A40FB79184951F8233042F48032DA6168
:10062400BA88FB79144951F82330012101FA02F206
:10063400DA61BB8801229A40FB790F4951F82330D3
:1006440042F48032DA61FB790B4A52F82330DB69D9
:10065400FB73FB79084A52F82330DB691B0CDBB2CD
:1006640003F00103FB7301E00023FB73FB7B1846DB
:100674001437BD4680BC70470000002080B584B0AC
:1006840000AF0346FB710123FB73FB79072B12D8E0
:100694000023BB730BE0BB7B9AB2FB79114618466F
:1006A400FFF7A4FF0346FB73BB7B0133BB73BB7B28
:1006B4000F2BF0D901E00023FB73FB7B18461037A6
:1006C400BD4680BD80B483B000AF78607B68002BEA
:1006D40001D1002332E07B685B781B4A03F03F03BF
:1006E400D9B2137861F3050313707B685B88164AEB
:1006F400C3F3080399B2138861F38E1313807B68E4
:100704001B79114A03F00303D9B2937861F301030F
:1007140093707B689B790C4A03F00F03D9B2D378AA
:1007240061F30303D3707B685B79074A03F0070323
:10073400D9B2D37861F30613D370012318460C376A
:10074400BD4680BC704700BF0438024080B485B009
:1007540000AF78604FF47A73FB817B68002B01D182
:1007640000233AE07B681B78022B03D07B681B785C
:10077400032B0FD11B4AD37843F00103D37000BF7E
:10078400184BDB78C3F34003DBB2002B02D1FB89A7
:10079400002BF5D1144B1B68134A43F00503136077
:1007A4007B681B78114A03F00303D9B2137861F311
:1007B4000103137000BF0D4B1B78C3F30103DAB2BE
:1007C4000A4B1B78C3F38103DBB29A4204D0FB8942
:1007D4005A1EFA81002BEED1012318461437BD4668
:1007E40080BC704700380240003C02400838024098
:1007F40080B582B000AF78600B46FB707B68002B3D
:1008040002D0FB78002B01D100234FE07B681B78DA
:10081400002B12D1274A137843F00103137000BF51
:10082400244B1B78C3F34003DBB2002BF8D0224ADD
:10083400937823F0400393701FE07B681B78012BAF
:100844001BD17B68DB791B4A03F00103D9B293788F
:1008540061F382039370174A937843F00103937012
:1008640000BF144B9B78C3F34003DBB2002BF8D0DA
:10087400114A937843F0400393707B681846FFF75E
:1008840021FF7B6808331846FFF760FF7B685B7ABB
:100894000A4A03F00F03D9B2137861F307131370F4
:1008A400044A937843F008039370012318460837E9
:1008B400BD4680BD0038024004380240083802407A
:1008C40080B483B000AF0346FB71074B1A68FB7911
:1008D400012101FA03F3044913430B6000BF0C37F1
:1008E400BD4680BC704700BF3038024080B483B03E
:1008F40000AF0346FB71074B1A68FB79012101FA2B
:1009040003F3044913430B6000BF0C37BD4680BC9E
:10091400704700BF3438024080B483B000AF034650
:10092400FB71074B1A68FB79012101FA03F30449AF
:1009340013430B6000BF0C37BD4680BC704700BF3B
:100944003838024080B483B000AF0346FB71074BD4
:100954001A68FB79012101FA03F3044913430B607C
:1009640000BF0C37BD4680BC704700BF4038024012
:1009740080B483B000AF0346FB71074B1A68FB7960
:10098400012101FA03F3044913430B6000BF0C3740
:10099400BD4680BC704700BF4438024080B483B079
:1009A40000AF0346FB71074B1A68FB79012101FA7A
:1009B40003F3DB43034913400B6000BF0C37BD4610
:1009C40080BC70473038024080B483B000AF034627
:1009D400FB71074B1A68FB79012101FA03F3DB432E
:1009E400034913400B6000BF0C37BD4680BC704701
:1009F4003438024080B483B000AF0346FB71074B28
:100A04001A68FB79012101FA03F3DB43034913401C
:100A14000B6000BF0C37BD4680BC704738380240BD
:100A240080B483B000AF0346FB71074B1A68FB79AF
:100A3400012101FA03F3DB43034913400B6000BFB8
:100A44000C37BD4680BC70474038024080B483B048
:100A540000AF0346FB71074B1A68FB79012101FAC9
:100A640003F3DB43034913400B6000BF0C37BD465F
:100A740080BC70474438024080B400AFFEE70000F9
:100A84000E4A0F4BD61A0F4B0D4D002405E01A46A3
:100A940013782B700135531C0134B442F7D30A4A3E
:100AA4000A4BD61A094D002403E000232B700135AC
:100AB4000134B442F9D3FFF783FBFEE720000020A2
:100AC40000000020D40A000820000020200000209C
:100AD400000002400004024000080240000C0240F2
:100AE400001002400014024000180240001C0240A2
:0F0AF4000008B40000020200000501030000002A
:0400000508000A8560
:00000001FF
